{
  "address": "0x0165878A594ca255338adfa4d48449f69242Eb8F",
  "abi": [
    {
      "inputs": [
        {
          "internalType": "address",
          "name": "_link",
          "type": "address"
        },
        {
          "internalType": "address",
          "name": "_registrar",
          "type": "address"
        },
        {
          "internalType": "address",
          "name": "_registry",
          "type": "address"
        }
      ],
      "stateMutability": "nonpayable",
      "type": "constructor"
    },
    {
      "inputs": [],
      "name": "Create2EmptyBytecode",
      "type": "error"
    },
    {
      "inputs": [],
      "name": "Create2FailedDeployment",
      "type": "error"
    },
    {
      "inputs": [
        {
          "internalType": "uint256",
          "name": "balance",
          "type": "uint256"
        },
        {
          "internalType": "uint256",
          "name": "needed",
          "type": "uint256"
        }
      ],
      "name": "Create2InsufficientBalance",
      "type": "error"
    },
    {
      "inputs": [
        {
          "internalType": "address",
          "name": "owner",
          "type": "address"
        }
      ],
      "name": "OwnableInvalidOwner",
      "type": "error"
    },
    {
      "inputs": [
        {
          "internalType": "address",
          "name": "account",
          "type": "address"
        }
      ],
      "name": "OwnableUnauthorizedAccount",
      "type": "error"
    },
    {
      "anonymous": false,
      "inputs": [
        {
          "indexed": true,
          "internalType": "address",
          "name": "ticketAddress",
          "type": "address"
        },
        {
          "indexed": true,
          "internalType": "address",
          "name": "owner",
          "type": "address"
        }
      ],
      "name": "EventCreated",
      "type": "event"
    },
    {
      "anonymous": false,
      "inputs": [
        {
          "indexed": false,
          "internalType": "uint256",
          "name": "upkeepID",
          "type": "uint256"
        }
      ],
      "name": "EventRegistered",
      "type": "event"
    },
    {
      "anonymous": false,
      "inputs": [
        {
          "indexed": true,
          "internalType": "address",
          "name": "previousOwner",
          "type": "address"
        },
        {
          "indexed": true,
          "internalType": "address",
          "name": "newOwner",
          "type": "address"
        }
      ],
      "name": "OwnershipTransferred",
      "type": "event"
    },
    {
      "inputs": [
        {
          "internalType": "string",
          "name": "name",
          "type": "string"
        },
        {
          "internalType": "string",
          "name": "symb",
          "type": "string"
        },
        {
          "internalType": "uint256",
          "name": "date",
          "type": "uint256"
        },
        {
          "internalType": "string",
          "name": "desc",
          "type": "string"
        },
        {
          "internalType": "string",
          "name": "location",
          "type": "string"
        },
        {
          "components": [
            {
              "internalType": "string",
              "name": "category",
              "type": "string"
            },
            {
              "internalType": "uint32",
              "name": "price",
              "type": "uint32"
            },
            {
              "internalType": "uint32",
              "name": "quantity",
              "type": "uint32"
            },
            {
              "internalType": "uint32",
              "name": "threshold",
              "type": "uint32"
            }
          ],
          "internalType": "struct EventFactory.Category[]",
          "name": "categories",
          "type": "tuple[]"
        }
      ],
      "name": "create",
      "outputs": [],
      "stateMutability": "nonpayable",
      "type": "function"
    },
    {
      "inputs": [],
      "name": "link",
      "outputs": [
        {
          "internalType": "address",
          "name": "",
          "type": "address"
        }
      ],
      "stateMutability": "view",
      "type": "function"
    },
    {
      "inputs": [],
      "name": "owner",
      "outputs": [
        {
          "internalType": "address",
          "name": "",
          "type": "address"
        }
      ],
      "stateMutability": "view",
      "type": "function"
    },
    {
      "inputs": [],
      "name": "registrar",
      "outputs": [
        {
          "internalType": "address",
          "name": "",
          "type": "address"
        }
      ],
      "stateMutability": "view",
      "type": "function"
    },
    {
      "inputs": [],
      "name": "registry",
      "outputs": [
        {
          "internalType": "address",
          "name": "",
          "type": "address"
        }
      ],
      "stateMutability": "view",
      "type": "function"
    },
    {
      "inputs": [],
      "name": "renounceOwnership",
      "outputs": [],
      "stateMutability": "nonpayable",
      "type": "function"
    },
    {
      "inputs": [
        {
          "internalType": "address",
          "name": "_link",
          "type": "address"
        }
      ],
      "name": "setLinkAddress",
      "outputs": [],
      "stateMutability": "nonpayable",
      "type": "function"
    },
    {
      "inputs": [
        {
          "internalType": "address",
          "name": "_registrar",
          "type": "address"
        }
      ],
      "name": "setRegistrar",
      "outputs": [],
      "stateMutability": "nonpayable",
      "type": "function"
    },
    {
      "inputs": [
        {
          "internalType": "address",
          "name": "newOwner",
          "type": "address"
        }
      ],
      "name": "transferOwnership",
      "outputs": [],
      "stateMutability": "nonpayable",
      "type": "function"
    }
  ],
  "transactionHash": "0x1a34e5998d6e4dc69a4cf096874a15bae806470ab71541465b67d589cbe6799e",
  "args": [
    "0xCf7Ed3AccA5a467e9e704C703E8D87F634fB0Fc9",
    "0x5FC8d32690cc91D4c39d9d3abcBD16989F875707",
    "0xDc64a140Aa3E981100a9becA4E685f962f0cF6C9"
  ],
  "numDeployments": 1,
  "solcInputHash": "8dc143ae449deb8921856bab9458fc3b",
  "bytecode": "0x60806040523480156200001157600080fd5b50604051620044fa380380620044fa833981016040819052620000349162000124565b33806200005b57604051631e4fbdf760e01b81526000600482015260240160405180910390fd5b6200006681620000b7565b50600180546001600160a01b039485166001600160a01b031991821617909155600280549385169382169390931790925560038054919093169082161790915560048054909116331790556200016e565b600080546001600160a01b038381166001600160a01b0319831681178455604051919092169283917f8be0079c531659141344cd1fd0a4f28419497f9722a3daafe3b4186f6b6457e09190a35050565b80516001600160a01b03811681146200011f57600080fd5b919050565b6000806000606084860312156200013a57600080fd5b620001458462000107565b9250620001556020850162000107565b9150620001656040850162000107565b90509250925092565b61437c806200017e6000396000f3fe60806040523480156200001157600080fd5b5060043610620000b05760003560e01c80637b103999116200007f578063f2fde38b1162000062578063f2fde38b1462000142578063f754cb2a1462000159578063faab9d39146200017057600080fd5b80637b103999146200011c5780638da5cb5b146200013057600080fd5b80631c4695f414620000b557806324ff766e14620000e55780632b20e39714620000fe578063715018a61462000112575b600080fd5b600154620000c9906001600160a01b031681565b6040516001600160a01b03909116815260200160405180910390f35b620000fc620000f636600462000af7565b62000187565b005b600254620000c9906001600160a01b031681565b620000fc620001c0565b600354620000c9906001600160a01b031681565b6000546001600160a01b0316620000c9565b620000fc6200015336600462000af7565b620001d8565b620000fc6200016a36600462000bab565b62000239565b620000fc6200018136600462000af7565b6200068c565b62000191620006c5565b6001805473ffffffffffffffffffffffffffffffffffffffff19166001600160a01b0392909216919091179055565b620001ca620006c5565b620001d660006200070d565b565b620001e2620006c5565b6001600160a01b0381166200022b576040517f1e4fbdf7000000000000000000000000000000000000000000000000000000008152600060048201526024015b60405180910390fd5b62000236816200070d565b50565b600881106200028b5760405162461bcd60e51b815260206004820152601060248201527f382063617465676f72696573206d617800000000000000000000000000000000604482015260640162000222565b60008b8b604051602001620002a292919062000cb8565b604051602081830303815290604052805190602001209050600060405180606001604052808a815260200189898080601f016020809104026020016040519081016040528093929190818152602001838380828437600092019190915250505090825250604080516020601f8a01819004810282018101909252888152918101919089908990819084018382808284376000920182905250939094525050604051929350919050620003576020820162000ad3565b6020820181038252601f19601f820116604052508e8e8e8e86308b8b6040516020016200038c98979695949392919062000d5f565b60408051601f1981840301815290829052620003ac929160200162000ef1565b60405160208183030381529060405290506000620003cd600085846200076a565b90506000620003dc8262000840565b6003546040517f79ea9943000000000000000000000000000000000000000000000000000000008152600481018390529192506001600160a01b038481169263d777cc6d9291909116906379ea994390602401602060405180830381865afa1580156200044d573d6000803e3d6000fd5b505050506040513d601f19601f8201168201806040525081019062000473919062000f24565b6040517fffffffff0000000000000000000000000000000000000000000000000000000060e084901b1681526001600160a01b039091166004820152602401600060405180830381600087803b158015620004cd57600080fd5b505af1158015620004e2573d6000803e3d6000fd5b5050600480546040517f704b6c020000000000000000000000000000000000000000000000000000000081526001600160a01b03918216928101929092528516925063704b6c029150602401600060405180830381600087803b1580156200054957600080fd5b505af11580156200055e573d6000803e3d6000fd5b50506040517ff2fde38b0000000000000000000000000000000000000000000000000000000081523360048201526001600160a01b038516925063f2fde38b9150602401600060405180830381600087803b158015620005bd57600080fd5b505af1158015620005d2573d6000803e3d6000fd5b50505050816001600160a01b0316638da5cb5b6040518163ffffffff1660e01b8152600401602060405180830381865afa15801562000615573d6000803e3d6000fd5b505050506040513d601f19601f820116820180604052508101906200063b919062000f24565b6001600160a01b0316826001600160a01b03167feccebe7b9eb846e30e8b21dfb66cad3313d87176fcd3b0a708737943afdaf82060405160405180910390a350505050505050505050505050505050565b62000696620006c5565b6002805473ffffffffffffffffffffffffffffffffffffffff19166001600160a01b0392909216919091179055565b6000546001600160a01b03163314620001d6576040517f118cdaa700000000000000000000000000000000000000000000000000000000815233600482015260240162000222565b600080546001600160a01b0383811673ffffffffffffffffffffffffffffffffffffffff19831681178455604051919092169283917f8be0079c531659141344cd1fd0a4f28419497f9722a3daafe3b4186f6b6457e09190a35050565b600083471015620007b1576040517fe4bbecac0000000000000000000000000000000000000000000000000000000081524760048201526024810185905260440162000222565b8151600003620007ed576040517f4ca249dc00000000000000000000000000000000000000000000000000000000815260040160405180910390fd5b8282516020840186f590506001600160a01b03811662000839576040517f741752c200000000000000000000000000000000000000000000000000000000815260040160405180910390fd5b9392505050565b6000806040518061014001604052806040518060400160405280600481526020017f46616374000000000000000000000000000000000000000000000000000000008152508152602001604051806020016040528060008152508152602001846001600160a01b031681526020016207a12063ffffffff168152602001620008d06000546001600160a01b031690565b6001600160a01b0390811682526000602080840182905260408051808301825283815281860152805180830182528381526060860152805191820181529181526080840152674563918244f4000060a090930183905260015460025491517f095ea7b300000000000000000000000000000000000000000000000000000000815291831660048301526024820193909352929350169063095ea7b3906044016020604051808303816000875af11580156200098f573d6000803e3d6000fd5b505050506040513d601f19601f82011682018060405250810190620009b5919062000f44565b506002546040517f3f678e110000000000000000000000000000000000000000000000000000000081526000916001600160a01b031690633f678e119062000a0290859060040162000f68565b6020604051808303816000875af115801562000a22573d6000803e3d6000fd5b505050506040513d601f19601f8201168201806040525081019062000a4891906200108e565b9050801562000a8a576040518181527ff7841816aba1a3efbffc76b013081d7b0730f384cbab4b5d3c5b3053a0d78e3f9060200160405180910390a162000839565b60405162461bcd60e51b815260206004820152601160248201527f556e61626c6520746f20617070726f7665000000000000000000000000000000604482015260640162000222565b61329e80620010a983390190565b6001600160a01b03811681146200023657600080fd5b60006020828403121562000b0a57600080fd5b8135620008398162000ae1565b60008083601f84011262000b2a57600080fd5b50813567ffffffffffffffff81111562000b4357600080fd5b60208301915083602082850101111562000b5c57600080fd5b9250929050565b60008083601f84011262000b7657600080fd5b50813567ffffffffffffffff81111562000b8f57600080fd5b6020830191508360208260051b850101111562000b5c57600080fd5b600080600080600080600080600080600060c08c8e03121562000bcd57600080fd5b67ffffffffffffffff808d35111562000be557600080fd5b62000bf48e8e358f0162000b17565b909c509a5060208d013581101562000c0b57600080fd5b62000c1d8e60208f01358f0162000b17565b909a50985060408d0135975060608d013581101562000c3b57600080fd5b62000c4d8e60608f01358f0162000b17565b909750955060808d013581101562000c6457600080fd5b62000c768e60808f01358f0162000b17565b909550935060a08d013581101562000c8d57600080fd5b5062000ca08d60a08e01358e0162000b63565b81935080925050509295989b509295989b9093969950565b8183823760009101908152919050565b81835281816020850137506000828201602090810191909152601f909101601f19169091010190565b60005b8381101562000d0e57818101518382015260200162000cf4565b50506000910152565b6000815180845262000d3181602086016020860162000cf1565b601f01601f19169290920160200192915050565b803563ffffffff8116811462000d5a57600080fd5b919050565b60a08152600062000d7560a083018a8c62000cc8565b60208382038185015262000d8b828a8c62000cc8565b9150604084830381860152606089518452828a0151818486015262000db38286018262000d17565b9050828b01518582038487015262000dcc828262000d17565b955050506001600160a01b03891681870152608086850381880152848886528486019050848960051b8701018a60005b8b81101562000ed857888303601f190184528135368e9003607e1901811262000e2457600080fd5b8d01803536829003601e1901811262000e3c57600080fd5b8101898101903567ffffffffffffffff81111562000e5957600080fd5b80360382131562000e6957600080fd5b87865262000e7b888701828462000cc8565b91505062000e8b8a830162000d45565b63ffffffff168a86015262000ea2828a0162000d45565b63ffffffff168986015262000eb982890162000d45565b63ffffffff169488019490945250928701929087019060010162000dfc565b5050809750505050505050509998505050505050505050565b6000835162000f0581846020880162000cf1565b83519083019062000f1b81836020880162000cf1565b01949350505050565b60006020828403121562000f3757600080fd5b8151620008398162000ae1565b60006020828403121562000f5757600080fd5b815180151581146200083957600080fd5b602081526000825161014080602085015262000f8961016085018362000d17565b91506020850151601f198086850301604087015262000fa9848362000d17565b93506040870151915062000fc860608701836001600160a01b03169052565b606087015163ffffffff81166080880152915060808701516001600160a01b03811660a0880152915060a087015160ff811660c0880152915060c08701519150808685030160e08701526200101e848362000d17565b935060e087015191506101008187860301818801526200103f858462000d17565b94508088015192505061012081878603018188015262001060858462000d17565b9450808801519250505062001084828601826bffffffffffffffffffffffff169052565b5090949350505050565b600060208284031215620010a157600080fd5b505191905056fe60806040523480156200001157600080fd5b506040516200329e3803806200329e8339810160408190526200003491620004d4565b338585600062000045838262000692565b50600162000054828262000692565b5050506001600160a01b0381166200008757604051631e4fbdf760e01b8152600060048201526024015b60405180910390fd5b62000092816200020e565b508051600811620000d95760405162461bcd60e51b815260206004820152601060248201526f07040c6c2e8cacedee4d2cae640dac2f60831b60448201526064016200007e565b60005b81518163ffffffff161015620001a957600d828263ffffffff16815181106200010957620001096200075e565b602090810291909101810151825460018101845560009384529190922082516002909202019081906200013d908262000692565b50602082015160019091018054604084015160609094015163ffffffff908116680100000000000000000263ffffffff60401b19958216640100000000026001600160401b03199093169190941617179290921617905580620001a08162000774565b915050620000dc565b508251600f9081556020840151849190601090620001c8908262000692565b5060408201516002820190620001df908262000692565b5050600980546001600160a01b0319166001600160a01b03949094169390931790925550620007a69350505050565b600780546001600160a01b038381166001600160a01b0319831681179093556040519116919082907f8be0079c531659141344cd1fd0a4f28419497f9722a3daafe3b4186f6b6457e090600090a35050565b634e487b7160e01b600052604160045260246000fd5b604051608081016001600160401b03811182821017156200029b576200029b62000260565b60405290565b604051606081016001600160401b03811182821017156200029b576200029b62000260565b604051601f8201601f191681016001600160401b0381118282101715620002f157620002f162000260565b604052919050565b600082601f8301126200030b57600080fd5b81516001600160401b0381111562000327576200032762000260565b60206200033d601f8301601f19168201620002c6565b82815285828487010111156200035257600080fd5b60005b838110156200037257858101830151828201840152820162000355565b506000928101909101919091529392505050565b80516001600160a01b03811681146200039e57600080fd5b919050565b805163ffffffff811681146200039e57600080fd5b600082601f830112620003ca57600080fd5b815160206001600160401b0380831115620003e957620003e962000260565b8260051b620003fa838201620002c6565b93845285810183019383810190888611156200041557600080fd5b84880192505b85831015620004c857825184811115620004355760008081fd5b88016080818b03601f19018113156200044e5760008081fd5b6200045862000276565b87830151878111156200046b5760008081fd5b6200047b8d8a83870101620002f9565b82525060406200048d818501620003a3565b898301526060620004a0818601620003a3565b82840152620004b1848601620003a3565b90830152508452505091840191908401906200041b565b98975050505050505050565b600080600080600060a08688031215620004ed57600080fd5b85516001600160401b03808211156200050557600080fd5b6200051389838a01620002f9565b965060208801519150808211156200052a57600080fd5b6200053889838a01620002f9565b955060408801519150808211156200054f57600080fd5b908701906060828a0312156200056457600080fd5b6200056e620002a1565b825181526020830151828111156200058557600080fd5b620005938b828601620002f9565b602083015250604083015182811115620005ac57600080fd5b620005ba8b828601620002f9565b6040830152509450620005d06060890162000386565b93506080880151915080821115620005e757600080fd5b50620005f688828901620003b8565b9150509295509295909350565b600181811c908216806200061857607f821691505b6020821081036200063957634e487b7160e01b600052602260045260246000fd5b50919050565b601f8211156200068d57600081815260208120601f850160051c81016020861015620006685750805b601f850160051c820191505b81811015620006895782815560010162000674565b5050505b505050565b81516001600160401b03811115620006ae57620006ae62000260565b620006c681620006bf845462000603565b846200063f565b602080601f831160018114620006fe5760008415620006e55750858301515b600019600386901b1c1916600185901b17855562000689565b600085815260208120601f198616915b828110156200072f578886015182559484019460019091019084016200070e565b50858210156200074e5787850151600019600388901b60f8161c191681555b5050505050600190811b01905550565b634e487b7160e01b600052603260045260246000fd5b600063ffffffff8083168181036200079c57634e487b7160e01b600052601160045260246000fd5b6001019392505050565b612ae880620007b66000396000f3fe6080604052600436106101d85760003560e01c8063715018a611610102578063bc0233bb11610095578063e985e9c511610064578063e985e9c514610588578063f2fde38b146105d1578063f645d4f9146105f1578063f851a4401461061157600080fd5b8063bc0233bb146104cf578063c87b56dd14610528578063d777cc6d14610548578063d935e2221461056857600080fd5b80639851fd9a116100d15780639851fd9a14610444578063a22cb4651461046b578063b625debf1461048b578063b88d4fde146104af57600080fd5b8063715018a6146103e957806386781739146103fe5780638da5cb5b1461041157806395d89b411461042f57600080fd5b80633ccfd60b1161017a5780636352211e116101495780636352211e1461035b5780636e04ff0d1461037b578063704b6c02146103a957806370a08231146103c957600080fd5b80633ccfd60b146102e457806342842e0e146102f95780634585e33b146103195780634db0412c1461033957600080fd5b8063081812fc116101b6578063081812fc1461024b578063095ea7b31461028357806323b872dd146102a35780632b996661146102c357600080fd5b806301ffc9a7146101dd57806306fdde031461021257806307f8f10014610234575b600080fd5b3480156101e957600080fd5b506101fd6101f8366004612293565b610631565b60405190151581526020015b60405180910390f35b34801561021e57600080fd5b50610227610675565b6040516102099190612300565b34801561024057600080fd5b50610249610707565b005b34801561025757600080fd5b5061026b610266366004612313565b6107b4565b6040516001600160a01b039091168152602001610209565b34801561028f57600080fd5b5061024961029e366004612348565b6107dd565b3480156102af57600080fd5b506102496102be366004612372565b6107ec565b6102d66102d1366004612497565b610877565b604051908152602001610209565b3480156102f057600080fd5b50610249610b3d565b34801561030557600080fd5b50610249610314366004612372565b610c46565b34801561032557600080fd5b50610249610334366004612525565b610c66565b34801561034557600080fd5b5061034e610cd1565b6040516102099190612567565b34801561036757600080fd5b5061026b610376366004612313565b610dfd565b34801561038757600080fd5b5061039b610396366004612525565b610e08565b6040516102099291906125fd565b3480156103b557600080fd5b506102496103c4366004612618565b610e2e565b3480156103d557600080fd5b506102d66103e4366004612618565b610e96565b3480156103f557600080fd5b50610249610ef7565b61024961040c366004612313565b610f0b565b34801561041d57600080fd5b506007546001600160a01b031661026b565b34801561043b57600080fd5b5061022761111c565b34801561045057600080fd5b50600e5461045e9060ff1681565b6040516102099190612649565b34801561047757600080fd5b50610249610486366004612671565b61112b565b34801561049757600080fd5b506104a0611136565b604051610209939291906126ad565b3480156104bb57600080fd5b506102496104ca3660046126e2565b61125b565b3480156104db57600080fd5b5061050c6104ea366004612313565b600c6020526000908152604090205460ff811690610100900463ffffffff1682565b60408051921515835263ffffffff909116602083015201610209565b34801561053457600080fd5b50610227610543366004612313565b611272565b34801561055457600080fd5b50610249610563366004612618565b611383565b34801561057457600080fd5b50610249610583366004612743565b6113eb565b34801561059457600080fd5b506101fd6105a336600461276f565b6001600160a01b03918216600090815260056020908152604080832093909416825291909152205460ff1690565b3480156105dd57600080fd5b506102496105ec366004612618565b6115ee565b3480156105fd57600080fd5b5060085461026b906001600160a01b031681565b34801561061d57600080fd5b5060095461026b906001600160a01b031681565b60006001600160e01b031982167f4906490600000000000000000000000000000000000000000000000000000000148061066f575061066f82611642565b92915050565b60606000805461068490612799565b80601f01602080910402602001604051908101604052809291908181526020018280546106b090612799565b80156106fd5780601f106106d2576101008083540402835291602001916106fd565b820191906000526020600020905b8154815290600101906020018083116106e057829003601f168201915b5050505050905090565b61070f6116dd565b6000600e5460ff16600281111561072857610728612633565b1461077a5760405162461bcd60e51b815260206004820152600f60248201527f53616c652069732073746172746564000000000000000000000000000000000060448201526064015b60405180910390fd5b600e805460ff1916600117905560405130907fb23df51aa4c7c88fad94925dc65de3f21383f30df5cadd92a38fe67dd1c3731690600090a2565b60006107bf82611723565b506000828152600460205260409020546001600160a01b031661066f565b6107e882823361175c565b5050565b6001600160a01b03821661081657604051633250574960e11b815260006004820152602401610771565b6000610823838333611769565b9050836001600160a01b0316816001600160a01b031614610871576040516364283d7b60e01b81526001600160a01b0380861660048301526024820184905282166044820152606401610771565b50505050565b60006001600e5460ff16600281111561089257610892612633565b146108d25760405162461bcd60e51b815260206004820152601060248201526f29b0b6329034b9903737ba1037b832b760811b6044820152606401610771565b60008061091486868080601f01602080910402602001604051908101604052809392919081815260200183838082843760009201919091525061186292505050565b91509150816020015163ffffffff16670de0b6b3a764000061093691906127e9565b67ffffffffffffffff1634101561098f5760405162461bcd60e51b815260206004820152601160248201527f4e6f7420656e6f75676874206d6f6e65790000000000000000000000000000006044820152606401610771565b60008763ffffffff161180156109b45750816040015163ffffffff168763ffffffff16105b610a005760405162461bcd60e51b815260206004820152601260248201527f496e76616c696420736561744e756d62657200000000000000000000000000006044820152606401610771565b600a8686604051610a12929190612815565b908152604080516020928190038301902063ffffffff8a166000908152925290205460ff1615610a845760405162461bcd60e51b815260206004820152600d60248201527f416c72656164792074616b656e000000000000000000000000000000000000006044820152606401610771565b6001600a8787604051610a98929190612815565b908152604080516020928190038301902063ffffffff8b16600081815291909352908120805460ff19169315159390931790925587908790610ad990611a6d565b604051602001610aeb93929190612825565b60408051808303601f1901815291815281516020928301206000818152600b9093529120805460ff191660ff85161790559050610b283382611b0d565b610b328186611b27565b979650505050505050565b610b456116dd565b6002600e5460ff166002811115610b5e57610b5e612633565b14610bab5760405162461bcd60e51b815260206004820152601560248201527f4576656e7420646964206e6f74206f63637572657300000000000000000000006044820152606401610771565b604051600090339047908381818185875af1925050503d8060008114610bed576040519150601f19603f3d011682016040523d82523d6000602084013e610bf2565b606091505b5050905080610c435760405162461bcd60e51b815260206004820152601d60248201527f4661696c656420746f20706572666f726d207472616e73616374696f6e0000006044820152606401610771565b50565b610c618383836040518060200160405280600081525061125b565b505050565b6008546001600160a01b03163314610cc05760405162461bcd60e51b815260206004820152600960248201527f4e6f742076616c696400000000000000000000000000000000000000000000006044820152606401610771565b5050600e805460ff19166002179055565b6060600d805480602002602001604051908101604052809291908181526020016000905b82821015610df45783829060005260206000209060020201604051806080016040529081600082018054610d2890612799565b80601f0160208091040260200160405190810160405280929190818152602001828054610d5490612799565b8015610da15780601f10610d7657610100808354040283529160200191610da1565b820191906000526020600020905b815481529060010190602001808311610d8457829003601f168201915b505050918352505060019182015463ffffffff8082166020808501919091526401000000008304821660408501526801000000000000000090920416606090920191909152918352929092019101610cf5565b50505050905090565b600061066f82611723565b600060606000600f60000154612a30610e21919061284c565b4211959194509092505050565b6009546001600160a01b03163314610e745760405162461bcd60e51b81526020600482015260096024820152682737ba1030b236b4b760b91b6044820152606401610771565b600980546001600160a01b0319166001600160a01b0392909216919091179055565b60006001600160a01b038216610edb576040517f89c62b6400000000000000000000000000000000000000000000000000000000815260006004820152602401610771565b506001600160a01b031660009081526003602052604090205490565b610eff6116dd565b610f096000611b70565b565b6001600e5460ff166002811115610f2457610f24612633565b14610f645760405162461bcd60e51b815260206004820152601060248201526f29b0b6329034b9903737ba1037b832b760811b6044820152606401610771565b6000818152600c602052604090205460ff16610fc25760405162461bcd60e51b815260206004820152601260248201527f546f6b656e206e6f7420666f722073616c6500000000000000000000000000006044820152606401610771565b6000818152600c6020526040902054610fee90610100900463ffffffff16670de0b6b3a76400006127e9565b67ffffffffffffffff163410156110475760405162461bcd60e51b815260206004820152601260248201527f4e6f7420656e6f75676874206d6f6e65792e00000000000000000000000000006044820152606401610771565b600061105282610dfd565b6000838152600c60205260409020805464ffffffffff191690559050611079813384611bc2565b6000816001600160a01b03163460405160006040518083038185875af1925050503d80600081146110c6576040519150601f19603f3d011682016040523d82523d6000602084013e6110cb565b606091505b5050905080610c615760405162461bcd60e51b815260206004820152601d60248201527f4661696c656420746f20706572666f726d207472616e73616374696f6e0000006044820152606401610771565b60606001805461068490612799565b6107e8338383611c72565b600f80546010805491929161114a90612799565b80601f016020809104026020016040519081016040528092919081815260200182805461117690612799565b80156111c35780601f10611198576101008083540402835291602001916111c3565b820191906000526020600020905b8154815290600101906020018083116111a657829003601f168201915b5050505050908060020180546111d890612799565b80601f016020809104026020016040519081016040528092919081815260200182805461120490612799565b80156112515780601f1061122657610100808354040283529160200191611251565b820191906000526020600020905b81548152906001019060200180831161123457829003601f168201915b5050505050905083565b6112668484846107ec565b61087184848484611d2a565b606061127d82611723565b506000828152600660205260408120805461129790612799565b80601f01602080910402602001604051908101604052809291908181526020018280546112c390612799565b80156113105780601f106112e557610100808354040283529160200191611310565b820191906000526020600020905b8154815290600101906020018083116112f357829003601f168201915b50505050509050600061132e60408051602081019091526000815290565b90508051600003611340575092915050565b81511561137257808260405160200161135a92919061285f565b60405160208183030381529060405292505050919050565b61137b84611e53565b949350505050565b6009546001600160a01b031633146113c95760405162461bcd60e51b81526020600482015260096024820152682737ba1030b236b4b760b91b6044820152606401610771565b600880546001600160a01b0319166001600160a01b0392909216919091179055565b6001600e5460ff16600281111561140457611404612633565b146114445760405162461bcd60e51b815260206004820152601060248201526f29b0b6329034b9903737ba1037b832b760811b6044820152606401610771565b61144d82610dfd565b6001600160a01b0316336001600160a01b0316146114ad5760405162461bcd60e51b815260206004820152600a60248201527f4e6f74206f776e65722e000000000000000000000000000000000000000000006044820152606401610771565b60008163ffffffff1611801561151357506000828152600b6020526040902054600d8054909160ff169081106114e5576114e561288e565b600091825260209091206001600290920201015463ffffffff68010000000000000000909104811690821611155b61155f5760405162461bcd60e51b815260206004820152600d60248201527f5072696365206578636565642e000000000000000000000000000000000000006044820152606401610771565b6040805180820182526001815263ffffffff80841660208084019182526000878152600c9091528490209251835491519092166101000264ffffffff00199215159290921664ffffffffff1990911617179055517fbe4191b2db5f3f513f8225ad308b7f8296b57c3d3a59d08d58e8ae3d48e3b72f906115e29084815260200190565b60405180910390a15050565b6115f66116dd565b6001600160a01b038116611639576040517f1e4fbdf700000000000000000000000000000000000000000000000000000000815260006004820152602401610771565b610c4381611b70565b60006001600160e01b031982167f80ac58cd0000000000000000000000000000000000000000000000000000000014806116a557506001600160e01b031982167f5b5e139f00000000000000000000000000000000000000000000000000000000145b8061066f57507f01ffc9a7000000000000000000000000000000000000000000000000000000006001600160e01b031983161461066f565b6007546001600160a01b03163314610f09576040517f118cdaa7000000000000000000000000000000000000000000000000000000008152336004820152602401610771565b6000818152600260205260408120546001600160a01b03168061066f57604051637e27328960e01b815260048101849052602401610771565b610c618383836001611ec8565b6000828152600260205260408120546001600160a01b039081169083161561179657611796818486612006565b6001600160a01b038116156117d4576117b3600085600080611ec8565b6001600160a01b038116600090815260036020526040902080546000190190555b6001600160a01b03851615611803576001600160a01b0385166000908152600360205260409020805460010190555b60008481526002602052604080822080546001600160a01b0319166001600160a01b0389811691821790925591518793918516917fddf252ad1be2c89b69c2b068fc378daa952ba7f163c4a11628f55a4df523b3ef91a4949350505050565b604080516080810182526060808252600060208301819052928201839052810182905290805b600d5460ff82161015611a2457600d8160ff16815481106118ab576118ab61288e565b90600052602060002090600202016000016040516020016118cc91906128a4565b60405160208183030381529060405280519060200120846040516020016118f3919061291a565b6040516020818303038152906040528051906020012003611a1257600d8160ff16815481106119245761192461288e565b9060005260206000209060020201818160405180608001604052908160008201805461194f90612799565b80601f016020809104026020016040519081016040528092919081815260200182805461197b90612799565b80156119c85780601f1061199d576101008083540402835291602001916119c8565b820191906000526020600020905b8154815290600101906020018083116119ab57829003601f168201915b50505091835250506001919091015463ffffffff80821660208401526401000000008204811660408401526801000000000000000090910416606090910152969095509350505050565b80611a1c81612936565b915050611888565b5060405162461bcd60e51b815260206004820152601060248201527f43617465676f727920756e6b6e6f776e000000000000000000000000000000006044820152606401610771565b60606000611a7a83612083565b600101905060008167ffffffffffffffff811115611a9a57611a9a61240b565b6040519080825280601f01601f191660200182016040528015611ac4576020820181803683370190505b5090508181016020015b600019017f3031323334353637383961626364656600000000000000000000000000000000600a86061a8153600a8504945084611ace57509392505050565b6107e8828260405180602001604052806000815250612165565b6000828152600660205260409020611b3f82826129a3565b506040518281527ff8e1a15aba9398e019f0b49df1a4fde98ee17ae345cb5f6b5e2c27f5033e8ce7906020016115e2565b600780546001600160a01b038381166001600160a01b0319831681179093556040519116919082907f8be0079c531659141344cd1fd0a4f28419497f9722a3daafe3b4186f6b6457e090600090a35050565b6001600160a01b038216611bec57604051633250574960e11b815260006004820152602401610771565b6000611bfa83836000611769565b90506001600160a01b038116611c2657604051637e27328960e01b815260048101839052602401610771565b836001600160a01b0316816001600160a01b031614610871576040516364283d7b60e01b81526001600160a01b0380861660048301526024820184905282166044820152606401610771565b6001600160a01b038216611cbd576040517f5b08ba180000000000000000000000000000000000000000000000000000000081526001600160a01b0383166004820152602401610771565b6001600160a01b03838116600081815260056020908152604080832094871680845294825291829020805460ff191686151590811790915591519182527f17307eab39ab6107e8899845ad3d59bd9653f200f220920489ca2b5937696c31910160405180910390a3505050565b6001600160a01b0383163b1561087157604051630a85bd0160e11b81526001600160a01b0384169063150b7a0290611d6c903390889087908790600401612a63565b6020604051808303816000875af1925050508015611da7575060408051601f3d908101601f19168201909252611da491810190612a95565b60015b611e10573d808015611dd5576040519150601f19603f3d011682016040523d82523d6000602084013e611dda565b606091505b508051600003611e0857604051633250574960e11b81526001600160a01b0385166004820152602401610771565b805181602001fd5b6001600160e01b03198116630a85bd0160e11b14611e4c57604051633250574960e11b81526001600160a01b0385166004820152602401610771565b5050505050565b6060611e5e82611723565b506000611e7660408051602081019091526000815290565b90506000815111611e965760405180602001604052806000815250611ec1565b80611ea084611a6d565b604051602001611eb192919061285f565b6040516020818303038152906040525b9392505050565b8080611edc57506001600160a01b03821615155b15611fd6576000611eec84611723565b90506001600160a01b03831615801590611f185750826001600160a01b0316816001600160a01b031614155b8015611f4a57506001600160a01b0380821660009081526005602090815260408083209387168352929052205460ff16155b15611f8c576040517fa9fbf51f0000000000000000000000000000000000000000000000000000000081526001600160a01b0384166004820152602401610771565b8115611fd45783856001600160a01b0316826001600160a01b03167f8c5be1e5ebec7d5bd14f71427d1e84f3dd0314c0f7b2291e5b200ac8c7c3b92560405160405180910390a45b505b5050600090815260046020526040902080546001600160a01b0319166001600160a01b0392909216919091179055565b61201183838361217c565b610c61576001600160a01b03831661203f57604051637e27328960e01b815260048101829052602401610771565b6040517f177e802f0000000000000000000000000000000000000000000000000000000081526001600160a01b038316600482015260248101829052604401610771565b6000807a184f03e93ff9f4daa797ed6e38ed64bf6a1f01000000000000000083106120cc577a184f03e93ff9f4daa797ed6e38ed64bf6a1f010000000000000000830492506040015b6d04ee2d6d415b85acef810000000083106120f8576d04ee2d6d415b85acef8100000000830492506020015b662386f26fc10000831061211657662386f26fc10000830492506010015b6305f5e100831061212e576305f5e100830492506008015b612710831061214257612710830492506004015b60648310612154576064830492506002015b600a831061066f5760010192915050565b61216f83836121ff565b610c616000848484611d2a565b60006001600160a01b0383161580159061137b5750826001600160a01b0316846001600160a01b031614806121d657506001600160a01b0380851660009081526005602090815260408083209387168352929052205460ff165b8061137b5750506000908152600460205260409020546001600160a01b03908116911614919050565b6001600160a01b03821661222957604051633250574960e11b815260006004820152602401610771565b600061223783836000611769565b90506001600160a01b03811615610c61576040517f73c6ac6e00000000000000000000000000000000000000000000000000000000815260006004820152602401610771565b6001600160e01b031981168114610c4357600080fd5b6000602082840312156122a557600080fd5b8135611ec18161227d565b60005b838110156122cb5781810151838201526020016122b3565b50506000910152565b600081518084526122ec8160208601602086016122b0565b601f01601f19169290920160200192915050565b602081526000611ec160208301846122d4565b60006020828403121561232557600080fd5b5035919050565b80356001600160a01b038116811461234357600080fd5b919050565b6000806040838503121561235b57600080fd5b6123648361232c565b946020939093013593505050565b60008060006060848603121561238757600080fd5b6123908461232c565b925061239e6020850161232c565b9150604084013590509250925092565b803563ffffffff8116811461234357600080fd5b60008083601f8401126123d457600080fd5b50813567ffffffffffffffff8111156123ec57600080fd5b60208301915083602082850101111561240457600080fd5b9250929050565b634e487b7160e01b600052604160045260246000fd5b600067ffffffffffffffff8084111561243c5761243c61240b565b604051601f8501601f19908116603f011681019082821181831017156124645761246461240b565b8160405280935085815286868601111561247d57600080fd5b858560208301376000602087830101525050509392505050565b600080600080606085870312156124ad57600080fd5b6124b6856123ae565b9350602085013567ffffffffffffffff808211156124d357600080fd5b6124df888389016123c2565b909550935060408701359150808211156124f857600080fd5b508501601f8101871361250a57600080fd5b61251987823560208401612421565b91505092959194509250565b6000806020838503121561253857600080fd5b823567ffffffffffffffff81111561254f57600080fd5b61255b858286016123c2565b90969095509350505050565b60006020808301818452808551808352604092508286019150828160051b87010184880160005b838110156125ef57603f198984030185528151608081518186526125b4828701826122d4565b838b015163ffffffff908116888d01528a85015181168b8901526060948501511693909601929092525050938601939086019060010161258e565b509098975050505050505050565b821515815260406020820152600061137b60408301846122d4565b60006020828403121561262a57600080fd5b611ec18261232c565b634e487b7160e01b600052602160045260246000fd5b602081016003831061266b57634e487b7160e01b600052602160045260246000fd5b91905290565b6000806040838503121561268457600080fd5b61268d8361232c565b9150602083013580151581146126a257600080fd5b809150509250929050565b8381526060602082015260006126c660608301856122d4565b82810360408401526126d881856122d4565b9695505050505050565b600080600080608085870312156126f857600080fd5b6127018561232c565b935061270f6020860161232c565b925060408501359150606085013567ffffffffffffffff81111561273257600080fd5b8501601f8101871361250a57600080fd5b6000806040838503121561275657600080fd5b82359150612766602084016123ae565b90509250929050565b6000806040838503121561278257600080fd5b61278b8361232c565b91506127666020840161232c565b600181811c908216806127ad57607f821691505b6020821081036127cd57634e487b7160e01b600052602260045260246000fd5b50919050565b634e487b7160e01b600052601160045260246000fd5b67ffffffffffffffff81811683821602808216919082811461280d5761280d6127d3565b505092915050565b8183823760009101908152919050565b8284823760008382016000815283516128428183602088016122b0565b0195945050505050565b8082018082111561066f5761066f6127d3565b600083516128718184602088016122b0565b8351908301906128858183602088016122b0565b01949350505050565b634e487b7160e01b600052603260045260246000fd5b60008083546128b281612799565b600182811680156128ca57600181146128df5761290e565b60ff198416875282151583028701945061290e565b8760005260208060002060005b858110156129055781548a8201529084019082016128ec565b50505082870194505b50929695505050505050565b6000825161292c8184602087016122b0565b9190910192915050565b600060ff821660ff810361294c5761294c6127d3565b60010192915050565b601f821115610c6157600081815260208120601f850160051c8101602086101561297c5750805b601f850160051c820191505b8181101561299b57828155600101612988565b505050505050565b815167ffffffffffffffff8111156129bd576129bd61240b565b6129d1816129cb8454612799565b84612955565b602080601f831160018114612a0657600084156129ee5750858301515b600019600386901b1c1916600185901b17855561299b565b600085815260208120601f198616915b82811015612a3557888601518255948401946001909101908401612a16565b5085821015612a535787850151600019600388901b60f8161c191681555b5050505050600190811b01905550565b60006001600160a01b038087168352808616602084015250836040830152608060608301526126d860808301846122d4565b600060208284031215612aa757600080fd5b8151611ec18161227d56fea2646970667358221220879b44e4ba9fb18f9be1580e53514df0568ad83f58f41040319b6974d74daa6064736f6c63430008150033a264697066735822122085bb440769f7140ae96822a55a0f2cf88fce7ad7b5247701d6547d3fc3295dac64736f6c63430008150033",
  "devdoc": {
    "errors": {
      "Create2EmptyBytecode()": [
        {
          "details": "There's no code to deploy."
        }
      ],
      "Create2FailedDeployment()": [
        {
          "details": "The deployment failed."
        }
      ],
      "Create2InsufficientBalance(uint256,uint256)": [
        {
          "details": "Not enough balance for performing a CREATE2 deploy."
        }
      ],
      "OwnableInvalidOwner(address)": [
        {
          "details": "The owner is not a valid owner account. (eg. `address(0)`)"
        }
      ],
      "OwnableUnauthorizedAccount(address)": [
        {
          "details": "The caller account is not authorized to perform an operation."
        }
      ]
    },
    "kind": "dev",
    "methods": {
      "owner()": {
        "details": "Returns the address of the current owner."
      },
      "renounceOwnership()": {
        "details": "Leaves the contract without owner. It will not be possible to call `onlyOwner` functions. Can only be called by the current owner. NOTE: Renouncing ownership will leave the contract without an owner, thereby disabling any functionality that is only available to the owner."
      },
      "transferOwnership(address)": {
        "details": "Transfers ownership of the contract to a new account (`newOwner`). Can only be called by the current owner."
      }
    },
    "version": 1
  },
  "userdoc": {
    "kind": "user",
    "methods": {},
    "version": 1
  },
  "storageLayout": {
    "storage": [
      {
        "astId": 1140,
        "contract": "contracts/EventFactory.sol:EventFactory",
        "label": "_owner",
        "offset": 0,
        "slot": "0",
        "type": "t_address"
      },
      {
        "astId": 4377,
        "contract": "contracts/EventFactory.sol:EventFactory",
        "label": "link",
        "offset": 0,
        "slot": "1",
        "type": "t_address"
      },
      {
        "astId": 4379,
        "contract": "contracts/EventFactory.sol:EventFactory",
        "label": "registrar",
        "offset": 0,
        "slot": "2",
        "type": "t_address"
      },
      {
        "astId": 4381,
        "contract": "contracts/EventFactory.sol:EventFactory",
        "label": "registry",
        "offset": 0,
        "slot": "3",
        "type": "t_address"
      },
      {
        "astId": 4383,
        "contract": "contracts/EventFactory.sol:EventFactory",
        "label": "admin",
        "offset": 0,
        "slot": "4",
        "type": "t_address"
      }
    ],
    "types": {
      "t_address": {
        "encoding": "inplace",
        "label": "address",
        "numberOfBytes": "20"
      }
    }
  }
}