{
  "address": "0xe7f1725E7734CE288F8367e1Bb143E90bb3F0512",
  "abi": [
    {
      "inputs": [
        {
          "internalType": "uint256",
          "name": "upkeepId",
          "type": "uint256"
        }
      ],
      "name": "getForwarder",
      "outputs": [
        {
          "internalType": "address",
          "name": "",
          "type": "address"
        }
      ],
      "stateMutability": "view",
      "type": "function"
    }
  ],
  "transactionHash": "0xd0965a3dd1b44f69d4dc9b799220dbd18b487546e3b4c2627c7312097b0e5eb1",
  "args": [],
  "numDeployments": 1,
  "solcInputHash": "d8343ba95d58b53085212b6fbdd61ec9",
  "bytecode": "0x608060405234801561001057600080fd5b5060dd8061001f6000396000f3fe6080604052348015600f57600080fd5b506004361060285760003560e01c806379ea994314602d575b600080fd5b60666038366004608f565b60408051426020820152600091016040516020818303038152906040528051906020012060601c9050919050565b60405173ffffffffffffffffffffffffffffffffffffffff909116815260200160405180910390f35b60006020828403121560a057600080fd5b503591905056fea2646970667358221220b4af36d0ba7ff3ea0b80dacbdc226faa9aa90561c07fd2168e4d78df11afa92064736f6c63430008140033",
  "devdoc": {
    "kind": "dev",
    "methods": {},
    "version": 1
  },
  "userdoc": {
    "kind": "user",
    "methods": {},
    "version": 1
  },
  "storageLayout": {
    "storage": [],
    "types": null
  }
}