{
  "address": "0xFD471836031dc5108809D173A067e8486B9047A3",
  "abi": [
    {
      "inputs": [
        {
          "internalType": "uint256",
          "name": "upkeepId",
          "type": "uint256"
        }
      ],
      "name": "getForwarder",
      "outputs": [
        {
          "internalType": "address",
          "name": "",
          "type": "address"
        }
      ],
      "stateMutability": "view",
      "type": "function"
    }
  ],
  "transactionHash": "0xb1403beda029502802f9ccf1e5842f1432a69fbc8fda9119119f946d54e3e51a",
  "args": [],
  "numDeployments": 1,
  "solcInputHash": "88ca576966566c743c95b11188e5bcce",
  "bytecode": "0x608060405234801561001057600080fd5b5060dd8061001f6000396000f3fe6080604052348015600f57600080fd5b506004361060285760003560e01c806379ea994314602d575b600080fd5b60666038366004608f565b60408051426020820152600091016040516020818303038152906040528051906020012060601c9050919050565b60405173ffffffffffffffffffffffffffffffffffffffff909116815260200160405180910390f35b60006020828403121560a057600080fd5b503591905056fea26469706673582212205cafee99ebbde435d2c49601364415a5767ba898c4595ba3f8805e041c53a1ce64736f6c63430008150033",
  "devdoc": {
    "kind": "dev",
    "methods": {},
    "version": 1
  },
  "userdoc": {
    "kind": "user",
    "methods": {},
    "version": 1
  },
  "storageLayout": {
    "storage": [],
    "types": null
  }
}