{
  "address": "0x5FbDB2315678afecb367f032d93F642f64180aa3",
  "abi": [
    {
      "anonymous": false,
      "inputs": [],
      "name": "Approved",
      "type": "event"
    },
    {
      "anonymous": false,
      "inputs": [
        {
          "indexed": false,
          "internalType": "uint256",
          "name": "amount",
          "type": "uint256"
        }
      ],
      "name": "LinkTransferred",
      "type": "event"
    },
    {
      "inputs": [
        {
          "internalType": "address",
          "name": "spender",
          "type": "address"
        },
        {
          "internalType": "uint256",
          "name": "value",
          "type": "uint256"
        }
      ],
      "name": "approve",
      "outputs": [
        {
          "internalType": "bool",
          "name": "success",
          "type": "bool"
        }
      ],
      "stateMutability": "nonpayable",
      "type": "function"
    },
    {
      "inputs": [
        {
          "internalType": "address",
          "name": "adr",
          "type": "address"
        }
      ],
      "name": "balanceOf",
      "outputs": [
        {
          "internalType": "uint256",
          "name": "",
          "type": "uint256"
        }
      ],
      "stateMutability": "view",
      "type": "function"
    },
    {
      "inputs": [],
      "name": "decimals",
      "outputs": [
        {
          "internalType": "uint8",
          "name": "decimalPlaces",
          "type": "uint8"
        }
      ],
      "stateMutability": "view",
      "type": "function"
    },
    {
      "inputs": [
        {
          "internalType": "address",
          "name": "to",
          "type": "address"
        },
        {
          "internalType": "uint256",
          "name": "value",
          "type": "uint256"
        }
      ],
      "name": "transfer",
      "outputs": [
        {
          "internalType": "bool",
          "name": "success",
          "type": "bool"
        }
      ],
      "stateMutability": "nonpayable",
      "type": "function"
    }
  ],
  "transactionHash": "0xe71ab150e1005ce6693e391b0b8ed1a08aff32a60094eaad70529a7a2372982c",
  "args": [],
  "numDeployments": 1,
  "solcInputHash": "0830c4c6a165774bd0760d90f3321d4a",
  "bytecode": "0x608060405234801561001057600080fd5b50610270806100206000396000f3fe608060405234801561001057600080fd5b506004361061004c5760003560e01c8063095ea7b314610051578063313ce5671461007957806370a0823114610088578063a9059cbb146100cc575b600080fd5b61006461005f3660046101ae565b6100df565b60405190151581526020015b60405180910390f35b60405160018152602001610070565b6100be6100963660046101d8565b73ffffffffffffffffffffffffffffffffffffffff1660009081526020819052604090205490565b604051908152602001610070565b6100646100da3660046101ae565b610110565b6040516000907f5de8e1faddeb54f5a59778c514254ea03868310d878ada71ed5118bfc800ea0d908290a192915050565b73ffffffffffffffffffffffffffffffffffffffff82166000908152602081905260408120805483919083906101479084906101fa565b90915550506040518281527fed08fcbfee1cf3040f34138aa20cd3f736689c22bfb5bb3e9c67d29dede73b419060200160405180910390a192915050565b803573ffffffffffffffffffffffffffffffffffffffff811681146101a957600080fd5b919050565b600080604083850312156101c157600080fd5b6101ca83610185565b946020939093013593505050565b6000602082840312156101ea57600080fd5b6101f382610185565b9392505050565b80820180821115610234577f4e487b7100000000000000000000000000000000000000000000000000000000600052601160045260246000fd5b9291505056fea2646970667358221220c48bdcc183578d0631af7e71fe762959cf42aa65e214c575e654f50c491a983164736f6c63430008140033",
  "devdoc": {
    "kind": "dev",
    "methods": {},
    "version": 1
  },
  "userdoc": {
    "kind": "user",
    "methods": {},
    "version": 1
  },
  "storageLayout": {
    "storage": [
      {
        "astId": 5242,
        "contract": "contracts/Mocks/MockLinkToken.sol:MockLinkToken",
        "label": "balances",
        "offset": 0,
        "slot": "0",
        "type": "t_mapping(t_address,t_uint256)"
      }
    ],
    "types": {
      "t_address": {
        "encoding": "inplace",
        "label": "address",
        "numberOfBytes": "20"
      },
      "t_mapping(t_address,t_uint256)": {
        "encoding": "mapping",
        "key": "t_address",
        "label": "mapping(address => uint256)",
        "numberOfBytes": "32",
        "value": "t_uint256"
      },
      "t_uint256": {
        "encoding": "inplace",
        "label": "uint256",
        "numberOfBytes": "32"
      }
    }
  }
}