{
  "address": "0xDc64a140Aa3E981100a9becA4E685f962f0cF6C9",
  "abi": [
    {
      "inputs": [
        {
          "internalType": "uint256",
          "name": "upkeepId",
          "type": "uint256"
        }
      ],
      "name": "getForwarder",
      "outputs": [
        {
          "internalType": "address",
          "name": "",
          "type": "address"
        }
      ],
      "stateMutability": "view",
      "type": "function"
    }
  ],
  "transactionHash": "0x5022f525653e062e1e5cb8377a04a79d2e94e8c8d7f4a819f8143803343a7a35",
  "args": [],
  "numDeployments": 1,
  "solcInputHash": "8dc143ae449deb8921856bab9458fc3b",
  "bytecode": "0x608060405234801561001057600080fd5b5060dd8061001f6000396000f3fe6080604052348015600f57600080fd5b506004361060285760003560e01c806379ea994314602d575b600080fd5b60666038366004608f565b60408051426020820152600091016040516020818303038152906040528051906020012060601c9050919050565b60405173ffffffffffffffffffffffffffffffffffffffff909116815260200160405180910390f35b60006020828403121560a057600080fd5b503591905056fea26469706673582212205cafee99ebbde435d2c49601364415a5767ba898c4595ba3f8805e041c53a1ce64736f6c63430008150033",
  "devdoc": {
    "kind": "dev",
    "methods": {},
    "version": 1
  },
  "userdoc": {
    "kind": "user",
    "methods": {},
    "version": 1
  },
  "storageLayout": {
    "storage": [],
    "types": null
  }
}