{
  "address": "0xA14210DDa7cE995F3e8f9aF43be9eB1564AC9337",
  "abi": [
    {
      "inputs": [
        {
          "internalType": "address",
          "name": "_link",
          "type": "address"
        },
        {
          "internalType": "address",
          "name": "_registrar",
          "type": "address"
        },
        {
          "internalType": "address",
          "name": "_registry",
          "type": "address"
        }
      ],
      "stateMutability": "nonpayable",
      "type": "constructor"
    },
    {
      "inputs": [],
      "name": "Create2EmptyBytecode",
      "type": "error"
    },
    {
      "inputs": [],
      "name": "Create2FailedDeployment",
      "type": "error"
    },
    {
      "inputs": [
        {
          "internalType": "uint256",
          "name": "balance",
          "type": "uint256"
        },
        {
          "internalType": "uint256",
          "name": "needed",
          "type": "uint256"
        }
      ],
      "name": "Create2InsufficientBalance",
      "type": "error"
    },
    {
      "inputs": [
        {
          "internalType": "address",
          "name": "owner",
          "type": "address"
        }
      ],
      "name": "OwnableInvalidOwner",
      "type": "error"
    },
    {
      "inputs": [
        {
          "internalType": "address",
          "name": "account",
          "type": "address"
        }
      ],
      "name": "OwnableUnauthorizedAccount",
      "type": "error"
    },
    {
      "anonymous": false,
      "inputs": [
        {
          "indexed": true,
          "internalType": "address",
          "name": "ticketAddress",
          "type": "address"
        },
        {
          "indexed": true,
          "internalType": "address",
          "name": "owner",
          "type": "address"
        }
      ],
      "name": "EventCreated",
      "type": "event"
    },
    {
      "anonymous": false,
      "inputs": [
        {
          "indexed": false,
          "internalType": "uint256",
          "name": "upkeepID",
          "type": "uint256"
        }
      ],
      "name": "EventRegistered",
      "type": "event"
    },
    {
      "anonymous": false,
      "inputs": [
        {
          "indexed": true,
          "internalType": "address",
          "name": "previousOwner",
          "type": "address"
        },
        {
          "indexed": true,
          "internalType": "address",
          "name": "newOwner",
          "type": "address"
        }
      ],
      "name": "OwnershipTransferred",
      "type": "event"
    },
    {
      "inputs": [
        {
          "internalType": "string",
          "name": "name",
          "type": "string"
        },
        {
          "internalType": "string",
          "name": "symb",
          "type": "string"
        },
        {
          "internalType": "uint256",
          "name": "date",
          "type": "uint256"
        },
        {
          "internalType": "string",
          "name": "desc",
          "type": "string"
        },
        {
          "internalType": "string",
          "name": "location",
          "type": "string"
        },
        {
          "components": [
            {
              "internalType": "string",
              "name": "category",
              "type": "string"
            },
            {
              "internalType": "uint32",
              "name": "price",
              "type": "uint32"
            },
            {
              "internalType": "uint32",
              "name": "quantity",
              "type": "uint32"
            },
            {
              "internalType": "uint32",
              "name": "threshold",
              "type": "uint32"
            }
          ],
          "internalType": "struct EventFactory.Category[]",
          "name": "categories",
          "type": "tuple[]"
        }
      ],
      "name": "create",
      "outputs": [],
      "stateMutability": "nonpayable",
      "type": "function"
    },
    {
      "inputs": [],
      "name": "link",
      "outputs": [
        {
          "internalType": "address",
          "name": "",
          "type": "address"
        }
      ],
      "stateMutability": "view",
      "type": "function"
    },
    {
      "inputs": [],
      "name": "owner",
      "outputs": [
        {
          "internalType": "address",
          "name": "",
          "type": "address"
        }
      ],
      "stateMutability": "view",
      "type": "function"
    },
    {
      "inputs": [],
      "name": "registrar",
      "outputs": [
        {
          "internalType": "address",
          "name": "",
          "type": "address"
        }
      ],
      "stateMutability": "view",
      "type": "function"
    },
    {
      "inputs": [],
      "name": "registry",
      "outputs": [
        {
          "internalType": "address",
          "name": "",
          "type": "address"
        }
      ],
      "stateMutability": "view",
      "type": "function"
    },
    {
      "inputs": [],
      "name": "renounceOwnership",
      "outputs": [],
      "stateMutability": "nonpayable",
      "type": "function"
    },
    {
      "inputs": [
        {
          "internalType": "address",
          "name": "_link",
          "type": "address"
        }
      ],
      "name": "setLinkAddress",
      "outputs": [],
      "stateMutability": "nonpayable",
      "type": "function"
    },
    {
      "inputs": [
        {
          "internalType": "address",
          "name": "_registrar",
          "type": "address"
        }
      ],
      "name": "setRegistrar",
      "outputs": [],
      "stateMutability": "nonpayable",
      "type": "function"
    },
    {
      "inputs": [
        {
          "internalType": "address",
          "name": "newOwner",
          "type": "address"
        }
      ],
      "name": "transferOwnership",
      "outputs": [],
      "stateMutability": "nonpayable",
      "type": "function"
    }
  ],
  "transactionHash": "0xe29195c1dccb490011359e5723b8316ff1eb9d90755cb59d01554c574288db5c",
  "args": [
    "0xb1D4538B4571d411F07960EF2838Ce337FE1E80E",
    "0x881918E24290084409DaA91979A30e6f0dB52eBe",
    "0x8194399B3f11fcA2E8cCEfc4c9A658c61B8Bf412"
  ],
  "numDeployments": 2,
  "solcInputHash": "dbc06bf5a53f8884821f8b9df2fa8c72",
  "bytecode": "0x60806040523480156200001157600080fd5b506040516200452d3803806200452d833981016040819052620000349162000124565b33806200005b57604051631e4fbdf760e01b81526000600482015260240160405180910390fd5b6200006681620000b7565b50600180546001600160a01b039485166001600160a01b031991821617909155600280549385169382169390931790925560038054919093169082161790915560048054909116331790556200016e565b600080546001600160a01b038381166001600160a01b0319831681178455604051919092169283917f8be0079c531659141344cd1fd0a4f28419497f9722a3daafe3b4186f6b6457e09190a35050565b80516001600160a01b03811681146200011f57600080fd5b919050565b6000806000606084860312156200013a57600080fd5b620001458462000107565b9250620001556020850162000107565b9150620001656040850162000107565b90509250925092565b6143af806200017e6000396000f3fe60806040523480156200001157600080fd5b5060043610620000b05760003560e01c80637b103999116200007f578063f2fde38b1162000062578063f2fde38b1462000142578063f754cb2a1462000159578063faab9d39146200017057600080fd5b80637b103999146200011c5780638da5cb5b146200013057600080fd5b80631c4695f414620000b557806324ff766e14620000e55780632b20e39714620000fe578063715018a61462000112575b600080fd5b600154620000c9906001600160a01b031681565b6040516001600160a01b03909116815260200160405180910390f35b620000fc620000f636600462000a89565b62000187565b005b600254620000c9906001600160a01b031681565b620000fc620001c0565b600354620000c9906001600160a01b031681565b6000546001600160a01b0316620000c9565b620000fc6200015336600462000a89565b620001d8565b620000fc6200016a36600462000b3d565b62000239565b620000fc6200018136600462000a89565b6200061e565b6200019162000657565b6001805473ffffffffffffffffffffffffffffffffffffffff19166001600160a01b0392909216919091179055565b620001ca62000657565b620001d660006200069f565b565b620001e262000657565b6001600160a01b0381166200022b576040517f1e4fbdf7000000000000000000000000000000000000000000000000000000008152600060048201526024015b60405180910390fd5b62000236816200069f565b50565b600881106200028b5760405162461bcd60e51b815260206004820152601060248201527f382063617465676f72696573206d617800000000000000000000000000000000604482015260640162000222565b60008b8b604051602001620002a292919062000c4a565b604051602081830303815290604052805190602001209050600060405180606001604052808a815260200189898080601f016020809104026020016040519081016040528093929190818152602001838380828437600092019190915250505090825250604080516020601f8a01819004810282018101909252888152918101919089908990819084018382808284376000920182905250939094525050604051929350919050620003576020820162000a65565b6020820181038252601f19601f820116604052508e8e8e8e86308b8b6040516020016200038c98979695949392919062000cf1565b60408051601f1981840301815290829052620003ac929160200162000e83565b60405160208183030381529060405290506000620003cd60008584620006fc565b90506000620003dc82620007d2565b6003546040517f79ea9943000000000000000000000000000000000000000000000000000000008152600481018390529192506001600160a01b038481169263d777cc6d9291909116906379ea994390602401602060405180830381865afa1580156200044d573d6000803e3d6000fd5b505050506040513d601f19601f8201168201806040525081019062000473919062000eb6565b6040517fffffffff0000000000000000000000000000000000000000000000000000000060e084901b1681526001600160a01b039091166004820152602401600060405180830381600087803b158015620004cd57600080fd5b505af1158015620004e2573d6000803e3d6000fd5b5050600480546040517f704b6c020000000000000000000000000000000000000000000000000000000081526001600160a01b03918216928101929092528516925063704b6c029150602401600060405180830381600087803b1580156200054957600080fd5b505af11580156200055e573d6000803e3d6000fd5b50506040517ff2fde38b0000000000000000000000000000000000000000000000000000000081523360048201526001600160a01b038516925063f2fde38b9150602401600060405180830381600087803b158015620005bd57600080fd5b505af1158015620005d2573d6000803e3d6000fd5b50506040513392506001600160a01b03851691507feccebe7b9eb846e30e8b21dfb66cad3313d87176fcd3b0a708737943afdaf82090600090a350505050505050505050505050505050565b6200062862000657565b6002805473ffffffffffffffffffffffffffffffffffffffff19166001600160a01b0392909216919091179055565b6000546001600160a01b03163314620001d6576040517f118cdaa700000000000000000000000000000000000000000000000000000000815233600482015260240162000222565b600080546001600160a01b0383811673ffffffffffffffffffffffffffffffffffffffff19831681178455604051919092169283917f8be0079c531659141344cd1fd0a4f28419497f9722a3daafe3b4186f6b6457e09190a35050565b60008347101562000743576040517fe4bbecac0000000000000000000000000000000000000000000000000000000081524760048201526024810185905260440162000222565b81516000036200077f576040517f4ca249dc00000000000000000000000000000000000000000000000000000000815260040160405180910390fd5b8282516020840186f590506001600160a01b038116620007cb576040517f741752c200000000000000000000000000000000000000000000000000000000815260040160405180910390fd5b9392505050565b6000806040518061014001604052806040518060400160405280600481526020017f46616374000000000000000000000000000000000000000000000000000000008152508152602001604051806020016040528060008152508152602001846001600160a01b031681526020016207a12063ffffffff168152602001620008626000546001600160a01b031690565b6001600160a01b0390811682526000602080840182905260408051808301825283815281860152805180830182528381526060860152805191820181529181526080840152674563918244f4000060a090930183905260015460025491517f095ea7b300000000000000000000000000000000000000000000000000000000815291831660048301526024820193909352929350169063095ea7b3906044016020604051808303816000875af115801562000921573d6000803e3d6000fd5b505050506040513d601f19601f8201168201806040525081019062000947919062000ed6565b506002546040517f3f678e110000000000000000000000000000000000000000000000000000000081526000916001600160a01b031690633f678e11906200099490859060040162000efa565b6020604051808303816000875af1158015620009b4573d6000803e3d6000fd5b505050506040513d601f19601f82011682018060405250810190620009da919062001020565b9050801562000a1c576040518181527ff7841816aba1a3efbffc76b013081d7b0730f384cbab4b5d3c5b3053a0d78e3f9060200160405180910390a1620007cb565b60405162461bcd60e51b815260206004820152601160248201527f556e61626c6520746f20617070726f7665000000000000000000000000000000604482015260640162000222565b61333f806200103b83390190565b6001600160a01b03811681146200023657600080fd5b60006020828403121562000a9c57600080fd5b8135620007cb8162000a73565b60008083601f84011262000abc57600080fd5b50813567ffffffffffffffff81111562000ad557600080fd5b60208301915083602082850101111562000aee57600080fd5b9250929050565b60008083601f84011262000b0857600080fd5b50813567ffffffffffffffff81111562000b2157600080fd5b6020830191508360208260051b850101111562000aee57600080fd5b600080600080600080600080600080600060c08c8e03121562000b5f57600080fd5b67ffffffffffffffff808d35111562000b7757600080fd5b62000b868e8e358f0162000aa9565b909c509a5060208d013581101562000b9d57600080fd5b62000baf8e60208f01358f0162000aa9565b909a50985060408d0135975060608d013581101562000bcd57600080fd5b62000bdf8e60608f01358f0162000aa9565b909750955060808d013581101562000bf657600080fd5b62000c088e60808f01358f0162000aa9565b909550935060a08d013581101562000c1f57600080fd5b5062000c328d60a08e01358e0162000af5565b81935080925050509295989b509295989b9093969950565b8183823760009101908152919050565b81835281816020850137506000828201602090810191909152601f909101601f19169091010190565b60005b8381101562000ca057818101518382015260200162000c86565b50506000910152565b6000815180845262000cc381602086016020860162000c83565b601f01601f19169290920160200192915050565b803563ffffffff8116811462000cec57600080fd5b919050565b60a08152600062000d0760a083018a8c62000c5a565b60208382038185015262000d1d828a8c62000c5a565b9150604084830381860152606089518452828a0151818486015262000d458286018262000ca9565b9050828b01518582038487015262000d5e828262000ca9565b955050506001600160a01b03891681870152608086850381880152848886528486019050848960051b8701018a60005b8b81101562000e6a57888303601f190184528135368e9003607e1901811262000db657600080fd5b8d01803536829003601e1901811262000dce57600080fd5b8101898101903567ffffffffffffffff81111562000deb57600080fd5b80360382131562000dfb57600080fd5b87865262000e0d888701828462000c5a565b91505062000e1d8a830162000cd7565b63ffffffff168a86015262000e34828a0162000cd7565b63ffffffff168986015262000e4b82890162000cd7565b63ffffffff169488019490945250928701929087019060010162000d8e565b5050809750505050505050509998505050505050505050565b6000835162000e9781846020880162000c83565b83519083019062000ead81836020880162000c83565b01949350505050565b60006020828403121562000ec957600080fd5b8151620007cb8162000a73565b60006020828403121562000ee957600080fd5b81518015158114620007cb57600080fd5b602081526000825161014080602085015262000f1b61016085018362000ca9565b91506020850151601f198086850301604087015262000f3b848362000ca9565b93506040870151915062000f5a60608701836001600160a01b03169052565b606087015163ffffffff81166080880152915060808701516001600160a01b03811660a0880152915060a087015160ff811660c0880152915060c08701519150808685030160e087015262000fb0848362000ca9565b935060e0870151915061010081878603018188015262000fd1858462000ca9565b94508088015192505061012081878603018188015262000ff2858462000ca9565b9450808801519250505062001016828601826bffffffffffffffffffffffff169052565b5090949350505050565b6000602082840312156200103357600080fd5b505191905056fe60806040523480156200001157600080fd5b506040516200333f3803806200333f8339810160408190526200003491620004d4565b338585600062000045838262000692565b50600162000054828262000692565b5050506001600160a01b0381166200008757604051631e4fbdf760e01b8152600060048201526024015b60405180910390fd5b62000092816200020e565b508051600811620000d95760405162461bcd60e51b815260206004820152601060248201526f07040c6c2e8cacedee4d2cae640dac2f60831b60448201526064016200007e565b60005b81518163ffffffff161015620001a957600e828263ffffffff16815181106200010957620001096200075e565b602090810291909101810151825460018101845560009384529190922082516002909202019081906200013d908262000692565b50602082015160019091018054604084015160609094015163ffffffff908116680100000000000000000263ffffffff60401b19958216640100000000026001600160401b03199093169190941617179290921617905580620001a08162000774565b915050620000dc565b50825160109081556020840151849190601190620001c8908262000692565b5060408201516002820190620001df908262000692565b5050600980546001600160a01b0319166001600160a01b03949094169390931790925550620007a69350505050565b600780546001600160a01b038381166001600160a01b0319831681179093556040519116919082907f8be0079c531659141344cd1fd0a4f28419497f9722a3daafe3b4186f6b6457e090600090a35050565b634e487b7160e01b600052604160045260246000fd5b604051608081016001600160401b03811182821017156200029b576200029b62000260565b60405290565b604051606081016001600160401b03811182821017156200029b576200029b62000260565b604051601f8201601f191681016001600160401b0381118282101715620002f157620002f162000260565b604052919050565b600082601f8301126200030b57600080fd5b81516001600160401b0381111562000327576200032762000260565b60206200033d601f8301601f19168201620002c6565b82815285828487010111156200035257600080fd5b60005b838110156200037257858101830151828201840152820162000355565b506000928101909101919091529392505050565b80516001600160a01b03811681146200039e57600080fd5b919050565b805163ffffffff811681146200039e57600080fd5b600082601f830112620003ca57600080fd5b815160206001600160401b0380831115620003e957620003e962000260565b8260051b620003fa838201620002c6565b93845285810183019383810190888611156200041557600080fd5b84880192505b85831015620004c857825184811115620004355760008081fd5b88016080818b03601f19018113156200044e5760008081fd5b6200045862000276565b87830151878111156200046b5760008081fd5b6200047b8d8a83870101620002f9565b82525060406200048d818501620003a3565b898301526060620004a0818601620003a3565b82840152620004b1848601620003a3565b90830152508452505091840191908401906200041b565b98975050505050505050565b600080600080600060a08688031215620004ed57600080fd5b85516001600160401b03808211156200050557600080fd5b6200051389838a01620002f9565b965060208801519150808211156200052a57600080fd5b6200053889838a01620002f9565b955060408801519150808211156200054f57600080fd5b908701906060828a0312156200056457600080fd5b6200056e620002a1565b825181526020830151828111156200058557600080fd5b620005938b828601620002f9565b602083015250604083015182811115620005ac57600080fd5b620005ba8b828601620002f9565b6040830152509450620005d06060890162000386565b93506080880151915080821115620005e757600080fd5b50620005f688828901620003b8565b9150509295509295909350565b600181811c908216806200061857607f821691505b6020821081036200063957634e487b7160e01b600052602260045260246000fd5b50919050565b601f8211156200068d57600081815260208120601f850160051c81016020861015620006685750805b601f850160051c820191505b81811015620006895782815560010162000674565b5050505b505050565b81516001600160401b03811115620006ae57620006ae62000260565b620006c681620006bf845462000603565b846200063f565b602080601f831160018114620006fe5760008415620006e55750858301515b600019600386901b1c1916600185901b17855562000689565b600085815260208120601f198616915b828110156200072f578886015182559484019460019091019084016200070e565b50858210156200074e5787850151600019600388901b60f8161c191681555b5050505050600190811b01905550565b634e487b7160e01b600052603260045260246000fd5b600063ffffffff8083168181036200079c57634e487b7160e01b600052601160045260246000fd5b6001019392505050565b612b8980620007b66000396000f3fe6080604052600436106101fe5760003560e01c8063715018a61161011d578063bc0233bb116100b0578063d935e2221161007f578063f2fde38b11610064578063f2fde38b14610639578063f645d4f914610659578063f851a4401461067957600080fd5b8063d935e222146105d0578063e985e9c5146105f057600080fd5b8063bc0233bb1461050a578063c87b56dd14610563578063d5199be014610583578063d777cc6d146105b057600080fd5b80639851fd9a116100ec5780639851fd9a1461047f578063a22cb465146104a6578063b625debf146104c6578063b88d4fde146104ea57600080fd5b8063715018a61461042457806386781739146104395780638da5cb5b1461044c57806395d89b411461046a57600080fd5b806342842e0e116101955780636352211e116101645780636352211e146103965780636e04ff0d146103b6578063704b6c02146103e457806370a082311461040457600080fd5b806342842e0e1461031f57806344a2080b1461033f5780634585e33b146103545780634db0412c1461037457600080fd5b8063095ea7b3116101d1578063095ea7b3146102a957806323b872dd146102c95780632b996661146102e95780633ccfd60b1461030a57600080fd5b806301ffc9a71461020357806306fdde031461023857806307f8f1001461025a578063081812fc14610271575b600080fd5b34801561020f57600080fd5b5061022361021e366004612334565b610699565b60405190151581526020015b60405180910390f35b34801561024457600080fd5b5061024d6106dd565b60405161022f91906123a1565b34801561026657600080fd5b5061026f61076f565b005b34801561027d57600080fd5b5061029161028c3660046123b4565b61081c565b6040516001600160a01b03909116815260200161022f565b3480156102b557600080fd5b5061026f6102c43660046123e9565b610845565b3480156102d557600080fd5b5061026f6102e4366004612413565b610854565b6102fc6102f7366004612538565b6108df565b60405190815260200161022f565b34801561031657600080fd5b5061026f610ba5565b34801561032b57600080fd5b5061026f61033a366004612413565b610cae565b34801561034b57600080fd5b5061026f610cce565b34801561036057600080fd5b5061026f61036f3660046125c6565b610d79565b34801561038057600080fd5b50610389610de4565b60405161022f9190612608565b3480156103a257600080fd5b506102916103b13660046123b4565b610f10565b3480156103c257600080fd5b506103d66103d13660046125c6565b610f1b565b60405161022f92919061269e565b3480156103f057600080fd5b5061026f6103ff3660046126b9565b610f41565b34801561041057600080fd5b506102fc61041f3660046126b9565b610fa9565b34801561043057600080fd5b5061026f61100a565b61026f6104473660046123b4565b61101e565b34801561045857600080fd5b506007546001600160a01b0316610291565b34801561047657600080fd5b5061024d6111bd565b34801561048b57600080fd5b50600f546104999060ff1681565b60405161022f91906126ea565b3480156104b257600080fd5b5061026f6104c1366004612712565b6111cc565b3480156104d257600080fd5b506104db6111d7565b60405161022f9392919061274e565b3480156104f657600080fd5b5061026f610505366004612783565b6112fc565b34801561051657600080fd5b506105476105253660046123b4565b600c6020526000908152604090205460ff811690610100900463ffffffff1682565b60408051921515835263ffffffff90911660208301520161022f565b34801561056f57600080fd5b5061024d61057e3660046123b4565b611313565b34801561058f57600080fd5b506102fc61059e3660046126b9565b600d6020526000908152604090205481565b3480156105bc57600080fd5b5061026f6105cb3660046126b9565b611424565b3480156105dc57600080fd5b5061026f6105eb3660046127e4565b61148c565b3480156105fc57600080fd5b5061022361060b366004612810565b6001600160a01b03918216600090815260056020908152604080832093909416825291909152205460ff1690565b34801561064557600080fd5b5061026f6106543660046126b9565b61168f565b34801561066557600080fd5b50600854610291906001600160a01b031681565b34801561068557600080fd5b50600954610291906001600160a01b031681565b60006001600160e01b031982167f490649060000000000000000000000000000000000000000000000000000000014806106d757506106d7826116e3565b92915050565b6060600080546106ec9061283a565b80601f01602080910402602001604051908101604052809291908181526020018280546107189061283a565b80156107655780601f1061073a57610100808354040283529160200191610765565b820191906000526020600020905b81548152906001019060200180831161074857829003601f168201915b5050505050905090565b61077761177e565b6000600f5460ff166002811115610790576107906126d4565b146107e25760405162461bcd60e51b815260206004820152600f60248201527f53616c652069732073746172746564000000000000000000000000000000000060448201526064015b60405180910390fd5b600f805460ff1916600117905560405130907fb23df51aa4c7c88fad94925dc65de3f21383f30df5cadd92a38fe67dd1c3731690600090a2565b6000610827826117c4565b506000828152600460205260409020546001600160a01b03166106d7565b6108508282336117fd565b5050565b6001600160a01b03821661087e57604051633250574960e11b8152600060048201526024016107d9565b600061088b83833361180a565b9050836001600160a01b0316816001600160a01b0316146108d9576040516364283d7b60e01b81526001600160a01b03808616600483015260248201849052821660448201526064016107d9565b50505050565b60006001600f5460ff1660028111156108fa576108fa6126d4565b1461093a5760405162461bcd60e51b815260206004820152601060248201526f29b0b6329034b9903737ba1037b832b760811b60448201526064016107d9565b60008061097c86868080601f01602080910402602001604051908101604052809392919081815260200183838082843760009201919091525061190392505050565b91509150816020015163ffffffff16670de0b6b3a764000061099e919061288a565b67ffffffffffffffff163410156109f75760405162461bcd60e51b815260206004820152601160248201527f4e6f7420656e6f75676874206d6f6e657900000000000000000000000000000060448201526064016107d9565b60008763ffffffff16118015610a1c5750816040015163ffffffff168763ffffffff16105b610a685760405162461bcd60e51b815260206004820152601260248201527f496e76616c696420736561744e756d626572000000000000000000000000000060448201526064016107d9565b600a8686604051610a7a9291906128b6565b908152604080516020928190038301902063ffffffff8a166000908152925290205460ff1615610aec5760405162461bcd60e51b815260206004820152600d60248201527f416c72656164792074616b656e0000000000000000000000000000000000000060448201526064016107d9565b6001600a8787604051610b009291906128b6565b908152604080516020928190038301902063ffffffff8b16600081815291909352908120805460ff19169315159390931790925587908790610b4190611b0e565b604051602001610b53939291906128c6565b60408051808303601f1901815291815281516020928301206000818152600b9093529120805460ff191660ff85161790559050610b903382611bae565b610b9a8186611bc8565b979650505050505050565b610bad61177e565b6002600f5460ff166002811115610bc657610bc66126d4565b14610c135760405162461bcd60e51b815260206004820152601560248201527f4576656e7420646964206e6f74206f636375726573000000000000000000000060448201526064016107d9565b604051600090339047908381818185875af1925050503d8060008114610c55576040519150601f19603f3d011682016040523d82523d6000602084013e610c5a565b606091505b5050905080610cab5760405162461bcd60e51b815260206004820152601d60248201527f4661696c656420746f20706572666f726d207472616e73616374696f6e00000060448201526064016107d9565b50565b610cc9838383604051806020016040528060008152506112fc565b505050565b336000818152600d6020526040808220805490839055905190929083908381818185875af1925050503d8060008114610d23576040519150601f19603f3d011682016040523d82523d6000602084013e610d28565b606091505b50509050806108505760405162461bcd60e51b815260206004820152601460248201527f4661696c656420746f2073656e6420457468657200000000000000000000000060448201526064016107d9565b6008546001600160a01b03163314610dd35760405162461bcd60e51b815260206004820152600960248201527f4e6f742076616c6964000000000000000000000000000000000000000000000060448201526064016107d9565b5050600f805460ff19166002179055565b6060600e805480602002602001604051908101604052809291908181526020016000905b82821015610f075783829060005260206000209060020201604051806080016040529081600082018054610e3b9061283a565b80601f0160208091040260200160405190810160405280929190818152602001828054610e679061283a565b8015610eb45780601f10610e8957610100808354040283529160200191610eb4565b820191906000526020600020905b815481529060010190602001808311610e9757829003601f168201915b505050918352505060019182015463ffffffff8082166020808501919091526401000000008304821660408501526801000000000000000090920416606090920191909152918352929092019101610e08565b50505050905090565b60006106d7826117c4565b600060606000601060000154612a30610f3491906128ed565b4211959194509092505050565b6009546001600160a01b03163314610f875760405162461bcd60e51b81526020600482015260096024820152682737ba1030b236b4b760b91b60448201526064016107d9565b600980546001600160a01b0319166001600160a01b0392909216919091179055565b60006001600160a01b038216610fee576040517f89c62b64000000000000000000000000000000000000000000000000000000008152600060048201526024016107d9565b506001600160a01b031660009081526003602052604090205490565b61101261177e565b61101c6000611c11565b565b6001600f5460ff166002811115611037576110376126d4565b146110775760405162461bcd60e51b815260206004820152601060248201526f29b0b6329034b9903737ba1037b832b760811b60448201526064016107d9565b6000818152600c602052604090205460ff166110d55760405162461bcd60e51b815260206004820152601260248201527f546f6b656e206e6f7420666f722073616c65000000000000000000000000000060448201526064016107d9565b6000818152600c602052604090205461110190610100900463ffffffff16670de0b6b3a764000061288a565b67ffffffffffffffff1634101561115a5760405162461bcd60e51b815260206004820152601260248201527f4e6f7420656e6f75676874206d6f6e65792e000000000000000000000000000060448201526064016107d9565b600061116582610f10565b6000838152600c60205260409020805464ffffffffff19169055905061118c813384611c63565b6001600160a01b0381166000908152600d6020526040812080543492906111b49084906128ed565b90915550505050565b6060600180546106ec9061283a565b610850338383611d13565b60108054601180549192916111eb9061283a565b80601f01602080910402602001604051908101604052809291908181526020018280546112179061283a565b80156112645780601f1061123957610100808354040283529160200191611264565b820191906000526020600020905b81548152906001019060200180831161124757829003601f168201915b5050505050908060020180546112799061283a565b80601f01602080910402602001604051908101604052809291908181526020018280546112a59061283a565b80156112f25780601f106112c7576101008083540402835291602001916112f2565b820191906000526020600020905b8154815290600101906020018083116112d557829003601f168201915b5050505050905083565b611307848484610854565b6108d984848484611dcb565b606061131e826117c4565b50600082815260066020526040812080546113389061283a565b80601f01602080910402602001604051908101604052809291908181526020018280546113649061283a565b80156113b15780601f10611386576101008083540402835291602001916113b1565b820191906000526020600020905b81548152906001019060200180831161139457829003601f168201915b5050505050905060006113cf60408051602081019091526000815290565b905080516000036113e1575092915050565b8151156114135780826040516020016113fb929190612900565b60405160208183030381529060405292505050919050565b61141c84611ef4565b949350505050565b6009546001600160a01b0316331461146a5760405162461bcd60e51b81526020600482015260096024820152682737ba1030b236b4b760b91b60448201526064016107d9565b600880546001600160a01b0319166001600160a01b0392909216919091179055565b6001600f5460ff1660028111156114a5576114a56126d4565b146114e55760405162461bcd60e51b815260206004820152601060248201526f29b0b6329034b9903737ba1037b832b760811b60448201526064016107d9565b6114ee82610f10565b6001600160a01b0316336001600160a01b03161461154e5760405162461bcd60e51b815260206004820152600a60248201527f4e6f74206f776e65722e0000000000000000000000000000000000000000000060448201526064016107d9565b60008163ffffffff161180156115b457506000828152600b6020526040902054600e8054909160ff169081106115865761158661292f565b600091825260209091206001600290920201015463ffffffff68010000000000000000909104811690821611155b6116005760405162461bcd60e51b815260206004820152600d60248201527f5072696365206578636565642e0000000000000000000000000000000000000060448201526064016107d9565b6040805180820182526001815263ffffffff80841660208084019182526000878152600c9091528490209251835491519092166101000264ffffffff00199215159290921664ffffffffff1990911617179055517fbe4191b2db5f3f513f8225ad308b7f8296b57c3d3a59d08d58e8ae3d48e3b72f906116839084815260200190565b60405180910390a15050565b61169761177e565b6001600160a01b0381166116da576040517f1e4fbdf7000000000000000000000000000000000000000000000000000000008152600060048201526024016107d9565b610cab81611c11565b60006001600160e01b031982167f80ac58cd00000000000000000000000000000000000000000000000000000000148061174657506001600160e01b031982167f5b5e139f00000000000000000000000000000000000000000000000000000000145b806106d757507f01ffc9a7000000000000000000000000000000000000000000000000000000006001600160e01b03198316146106d7565b6007546001600160a01b0316331461101c576040517f118cdaa70000000000000000000000000000000000000000000000000000000081523360048201526024016107d9565b6000818152600260205260408120546001600160a01b0316806106d757604051637e27328960e01b8152600481018490526024016107d9565b610cc98383836001611f69565b6000828152600260205260408120546001600160a01b0390811690831615611837576118378184866120a7565b6001600160a01b0381161561187557611854600085600080611f69565b6001600160a01b038116600090815260036020526040902080546000190190555b6001600160a01b038516156118a4576001600160a01b0385166000908152600360205260409020805460010190555b60008481526002602052604080822080546001600160a01b0319166001600160a01b0389811691821790925591518793918516917fddf252ad1be2c89b69c2b068fc378daa952ba7f163c4a11628f55a4df523b3ef91a4949350505050565b604080516080810182526060808252600060208301819052928201839052810182905290805b600e5460ff82161015611ac557600e8160ff168154811061194c5761194c61292f565b906000526020600020906002020160000160405160200161196d9190612945565b604051602081830303815290604052805190602001208460405160200161199491906129bb565b6040516020818303038152906040528051906020012003611ab357600e8160ff16815481106119c5576119c561292f565b906000526020600020906002020181816040518060800160405290816000820180546119f09061283a565b80601f0160208091040260200160405190810160405280929190818152602001828054611a1c9061283a565b8015611a695780601f10611a3e57610100808354040283529160200191611a69565b820191906000526020600020905b815481529060010190602001808311611a4c57829003601f168201915b50505091835250506001919091015463ffffffff80821660208401526401000000008204811660408401526801000000000000000090910416606090910152969095509350505050565b80611abd816129d7565b915050611929565b5060405162461bcd60e51b815260206004820152601060248201527f43617465676f727920756e6b6e6f776e0000000000000000000000000000000060448201526064016107d9565b60606000611b1b83612124565b600101905060008167ffffffffffffffff811115611b3b57611b3b6124ac565b6040519080825280601f01601f191660200182016040528015611b65576020820181803683370190505b5090508181016020015b600019017f3031323334353637383961626364656600000000000000000000000000000000600a86061a8153600a8504945084611b6f57509392505050565b610850828260405180602001604052806000815250612206565b6000828152600660205260409020611be08282612a44565b506040518281527ff8e1a15aba9398e019f0b49df1a4fde98ee17ae345cb5f6b5e2c27f5033e8ce790602001611683565b600780546001600160a01b038381166001600160a01b0319831681179093556040519116919082907f8be0079c531659141344cd1fd0a4f28419497f9722a3daafe3b4186f6b6457e090600090a35050565b6001600160a01b038216611c8d57604051633250574960e11b8152600060048201526024016107d9565b6000611c9b8383600061180a565b90506001600160a01b038116611cc757604051637e27328960e01b8152600481018390526024016107d9565b836001600160a01b0316816001600160a01b0316146108d9576040516364283d7b60e01b81526001600160a01b03808616600483015260248201849052821660448201526064016107d9565b6001600160a01b038216611d5e576040517f5b08ba180000000000000000000000000000000000000000000000000000000081526001600160a01b03831660048201526024016107d9565b6001600160a01b03838116600081815260056020908152604080832094871680845294825291829020805460ff191686151590811790915591519182527f17307eab39ab6107e8899845ad3d59bd9653f200f220920489ca2b5937696c31910160405180910390a3505050565b6001600160a01b0383163b156108d957604051630a85bd0160e11b81526001600160a01b0384169063150b7a0290611e0d903390889087908790600401612b04565b6020604051808303816000875af1925050508015611e48575060408051601f3d908101601f19168201909252611e4591810190612b36565b60015b611eb1573d808015611e76576040519150601f19603f3d011682016040523d82523d6000602084013e611e7b565b606091505b508051600003611ea957604051633250574960e11b81526001600160a01b03851660048201526024016107d9565b805181602001fd5b6001600160e01b03198116630a85bd0160e11b14611eed57604051633250574960e11b81526001600160a01b03851660048201526024016107d9565b5050505050565b6060611eff826117c4565b506000611f1760408051602081019091526000815290565b90506000815111611f375760405180602001604052806000815250611f62565b80611f4184611b0e565b604051602001611f52929190612900565b6040516020818303038152906040525b9392505050565b8080611f7d57506001600160a01b03821615155b15612077576000611f8d846117c4565b90506001600160a01b03831615801590611fb95750826001600160a01b0316816001600160a01b031614155b8015611feb57506001600160a01b0380821660009081526005602090815260408083209387168352929052205460ff16155b1561202d576040517fa9fbf51f0000000000000000000000000000000000000000000000000000000081526001600160a01b03841660048201526024016107d9565b81156120755783856001600160a01b0316826001600160a01b03167f8c5be1e5ebec7d5bd14f71427d1e84f3dd0314c0f7b2291e5b200ac8c7c3b92560405160405180910390a45b505b5050600090815260046020526040902080546001600160a01b0319166001600160a01b0392909216919091179055565b6120b283838361221d565b610cc9576001600160a01b0383166120e057604051637e27328960e01b8152600481018290526024016107d9565b6040517f177e802f0000000000000000000000000000000000000000000000000000000081526001600160a01b0383166004820152602481018290526044016107d9565b6000807a184f03e93ff9f4daa797ed6e38ed64bf6a1f010000000000000000831061216d577a184f03e93ff9f4daa797ed6e38ed64bf6a1f010000000000000000830492506040015b6d04ee2d6d415b85acef81000000008310612199576d04ee2d6d415b85acef8100000000830492506020015b662386f26fc1000083106121b757662386f26fc10000830492506010015b6305f5e10083106121cf576305f5e100830492506008015b61271083106121e357612710830492506004015b606483106121f5576064830492506002015b600a83106106d75760010192915050565b61221083836122a0565b610cc96000848484611dcb565b60006001600160a01b0383161580159061141c5750826001600160a01b0316846001600160a01b0316148061227757506001600160a01b0380851660009081526005602090815260408083209387168352929052205460ff165b8061141c5750506000908152600460205260409020546001600160a01b03908116911614919050565b6001600160a01b0382166122ca57604051633250574960e11b8152600060048201526024016107d9565b60006122d88383600061180a565b90506001600160a01b03811615610cc9576040517f73c6ac6e000000000000000000000000000000000000000000000000000000008152600060048201526024016107d9565b6001600160e01b031981168114610cab57600080fd5b60006020828403121561234657600080fd5b8135611f628161231e565b60005b8381101561236c578181015183820152602001612354565b50506000910152565b6000815180845261238d816020860160208601612351565b601f01601f19169290920160200192915050565b602081526000611f626020830184612375565b6000602082840312156123c657600080fd5b5035919050565b80356001600160a01b03811681146123e457600080fd5b919050565b600080604083850312156123fc57600080fd5b612405836123cd565b946020939093013593505050565b60008060006060848603121561242857600080fd5b612431846123cd565b925061243f602085016123cd565b9150604084013590509250925092565b803563ffffffff811681146123e457600080fd5b60008083601f84011261247557600080fd5b50813567ffffffffffffffff81111561248d57600080fd5b6020830191508360208285010111156124a557600080fd5b9250929050565b634e487b7160e01b600052604160045260246000fd5b600067ffffffffffffffff808411156124dd576124dd6124ac565b604051601f8501601f19908116603f01168101908282118183101715612505576125056124ac565b8160405280935085815286868601111561251e57600080fd5b858560208301376000602087830101525050509392505050565b6000806000806060858703121561254e57600080fd5b6125578561244f565b9350602085013567ffffffffffffffff8082111561257457600080fd5b61258088838901612463565b9095509350604087013591508082111561259957600080fd5b508501601f810187136125ab57600080fd5b6125ba878235602084016124c2565b91505092959194509250565b600080602083850312156125d957600080fd5b823567ffffffffffffffff8111156125f057600080fd5b6125fc85828601612463565b90969095509350505050565b60006020808301818452808551808352604092508286019150828160051b87010184880160005b8381101561269057603f1989840301855281516080815181865261265582870182612375565b838b015163ffffffff908116888d01528a85015181168b8901526060948501511693909601929092525050938601939086019060010161262f565b509098975050505050505050565b821515815260406020820152600061141c6040830184612375565b6000602082840312156126cb57600080fd5b611f62826123cd565b634e487b7160e01b600052602160045260246000fd5b602081016003831061270c57634e487b7160e01b600052602160045260246000fd5b91905290565b6000806040838503121561272557600080fd5b61272e836123cd565b91506020830135801515811461274357600080fd5b809150509250929050565b8381526060602082015260006127676060830185612375565b82810360408401526127798185612375565b9695505050505050565b6000806000806080858703121561279957600080fd5b6127a2856123cd565b93506127b0602086016123cd565b925060408501359150606085013567ffffffffffffffff8111156127d357600080fd5b8501601f810187136125ab57600080fd5b600080604083850312156127f757600080fd5b823591506128076020840161244f565b90509250929050565b6000806040838503121561282357600080fd5b61282c836123cd565b9150612807602084016123cd565b600181811c9082168061284e57607f821691505b60208210810361286e57634e487b7160e01b600052602260045260246000fd5b50919050565b634e487b7160e01b600052601160045260246000fd5b67ffffffffffffffff8181168382160280821691908281146128ae576128ae612874565b505092915050565b8183823760009101908152919050565b8284823760008382016000815283516128e3818360208801612351565b0195945050505050565b808201808211156106d7576106d7612874565b60008351612912818460208801612351565b835190830190612926818360208801612351565b01949350505050565b634e487b7160e01b600052603260045260246000fd5b60008083546129538161283a565b6001828116801561296b5760018114612980576129af565b60ff19841687528215158302870194506129af565b8760005260208060002060005b858110156129a65781548a82015290840190820161298d565b50505082870194505b50929695505050505050565b600082516129cd818460208701612351565b9190910192915050565b600060ff821660ff81036129ed576129ed612874565b60010192915050565b601f821115610cc957600081815260208120601f850160051c81016020861015612a1d5750805b601f850160051c820191505b81811015612a3c57828155600101612a29565b505050505050565b815167ffffffffffffffff811115612a5e57612a5e6124ac565b612a7281612a6c845461283a565b846129f6565b602080601f831160018114612aa75760008415612a8f5750858301515b600019600386901b1c1916600185901b178555612a3c565b600085815260208120601f198616915b82811015612ad657888601518255948401946001909101908401612ab7565b5085821015612af45787850151600019600388901b60f8161c191681555b5050505050600190811b01905550565b60006001600160a01b038087168352808616602084015250836040830152608060608301526127796080830184612375565b600060208284031215612b4857600080fd5b8151611f628161231e56fea2646970667358221220069343ce7b99743f41c6f8e8d867c42c205c2cbe5980ce1b475c44093ab9ace464736f6c63430008140033a26469706673582212208523da70f53160da83908df136963bae99ce56f56db6b320e108daa4e3f2f77e64736f6c63430008140033",
  "devdoc": {
    "errors": {
      "Create2EmptyBytecode()": [
        {
          "details": "There's no code to deploy."
        }
      ],
      "Create2FailedDeployment()": [
        {
          "details": "The deployment failed."
        }
      ],
      "Create2InsufficientBalance(uint256,uint256)": [
        {
          "details": "Not enough balance for performing a CREATE2 deploy."
        }
      ],
      "OwnableInvalidOwner(address)": [
        {
          "details": "The owner is not a valid owner account. (eg. `address(0)`)"
        }
      ],
      "OwnableUnauthorizedAccount(address)": [
        {
          "details": "The caller account is not authorized to perform an operation."
        }
      ]
    },
    "kind": "dev",
    "methods": {
      "owner()": {
        "details": "Returns the address of the current owner."
      },
      "renounceOwnership()": {
        "details": "Leaves the contract without owner. It will not be possible to call `onlyOwner` functions. Can only be called by the current owner. NOTE: Renouncing ownership will leave the contract without an owner, thereby disabling any functionality that is only available to the owner."
      },
      "transferOwnership(address)": {
        "details": "Transfers ownership of the contract to a new account (`newOwner`). Can only be called by the current owner."
      }
    },
    "version": 1
  },
  "userdoc": {
    "kind": "user",
    "methods": {},
    "version": 1
  },
  "storageLayout": {
    "storage": [
      {
        "astId": 1140,
        "contract": "contracts/EventFactory.sol:EventFactory",
        "label": "_owner",
        "offset": 0,
        "slot": "0",
        "type": "t_address"
      },
      {
        "astId": 4377,
        "contract": "contracts/EventFactory.sol:EventFactory",
        "label": "link",
        "offset": 0,
        "slot": "1",
        "type": "t_address"
      },
      {
        "astId": 4379,
        "contract": "contracts/EventFactory.sol:EventFactory",
        "label": "registrar",
        "offset": 0,
        "slot": "2",
        "type": "t_address"
      },
      {
        "astId": 4381,
        "contract": "contracts/EventFactory.sol:EventFactory",
        "label": "registry",
        "offset": 0,
        "slot": "3",
        "type": "t_address"
      },
      {
        "astId": 4383,
        "contract": "contracts/EventFactory.sol:EventFactory",
        "label": "admin",
        "offset": 0,
        "slot": "4",
        "type": "t_address"
      }
    ],
    "types": {
      "t_address": {
        "encoding": "inplace",
        "label": "address",
        "numberOfBytes": "20"
      }
    }
  }
}